:020000040800F2
:10000000005000209D150008991400089B1400085A
:100010009D1400089F140008A114000800000000AF
:10002000000000000000000000000000A314000811
:10003000A514000800000000A7140008A914000877
:10004000E5150008E5150008E5150008E5150008A8
:10005000E5150008E5150008E5150008E515000898
:10006000E5150008E5150008E5150008E515000888
:10007000E5150008E5150008E5150008E515000878
:10008000E5150008E5150008AD140008E5150008A1
:10009000E5150008E5150008E5150008E515000858
:1000A000E5150008B9140008E5150008E515000875
:1000B000C5140008E5150008E5150008E515000859
:1000C000E5150008E5150008E5150008E515000828
:1000D000E5150008E5150008E5150008E515000818
:1000E000D1140008E5150008E5150008000000001F
:1000F0000000000000000000000000000000000000
:0C01000000000000000000005FF808F1A3
:1001100010B5054C237833B9044B13B10448AFF341
:1001200000800123237010BDD401002000000000D6
:10013000E471000808B5034B1BB103490348AFF352
:10014000008008BD00000000D8010020E471000814
:10015000034613F8012B002AFBD1181A0138704707
:1001600081F0004102E000BF83F0004330B54FEA68
:1001700041044FEA430594EA050F08BF90EA020FD5
:100180001FBF54EA000C55EA020C7FEA645C7FEA68
:10019000655C00F0E2804FEA5454D4EB5555B8BF8B
:1001A0006D420CDD2C4480EA020281EA030382EAFC
:1001B000000083EA010180EA020281EA0303362D8E
:1001C00088BF30BD11F0004F4FEA01314FF4801C61
:1001D0004CEA113102D0404261EB410113F0004F73
:1001E0004FEA03334CEA133302D0524263EB43032A
:1001F00094EA050F00F0A780A4F10104D5F1200EC8
:100200000DDB02FA0EFC22FA05F2801841F1000122
:1002100003FA0EF2801843FA05F359410EE0A5F1F6
:1002200020050EF1200E012A03FA0EFC28BF4CF027
:10023000020C43FA05F3C01851EBE37101F00045DD
:1002400007D54FF0000EDCF1000C7EEB00006EEBEA
:100250000101B1F5801F1BD3B1F5001F0CD3490874
:100260005FEA30004FEA3C0C04F101044FEA4452CB
:1002700012F5800F80F09A80BCF1004F08BF5FEA52
:10028000500C50F1000041EB045141EA050130BD32
:100290005FEA4C0C404141EB0101013C28BFB1F544
:1002A000801FE9D291F0000F04BF01460020B1FA8F
:1002B00081F308BF2033A3F10B03B3F120020CDA62
:1002C0000C3208DD02F1140CC2F10C0201FA0CF040
:1002D00021FA02F10CE002F11402D8BFC2F1200CA5
:1002E00001FA02F120FA0CFCDCBF41EA0C0190405B
:1002F000E41AA2BF01EB0451294330BD6FEA0404A4
:100300001F3C1CDA0C340EDC04F11404C4F120028E
:1003100020FA04F001FA02F340EA030021FA04F3A0
:1003200045EA030130BDC4F10C04C4F1200220FAF7
:1003300002F001FA04F340EA0300294630BD21FA35
:1003400004F0294630BD94F0000F83F4801306BFFB
:1003500081F480110134013D4EE77FEA645C18BFEF
:100360007FEA655C29D094EA050F08BF90EA020F86
:1003700005D054EA000C04BF1946104630BD91EA7E
:10038000030F1EBF0021002030BD5FEA545C05D181
:100390004000494128BF41F0004130BD14F58004C0
:1003A0003CBF01F5801130BD01F0004545F0FE4134
:1003B00041F470014FF0000030BD7FEA645C1ABF69
:1003C000194610467FEA655C1CBF0B46024650EAA0
:1003D000013406BF52EA033591EA030F41F40021CC
:1003E00030BD00BF90F0000F04BF0021704730B552
:1003F0004FF4806404F132044FF000054FF0000127
:1004000050E700BF90F0000F04BF0021704730B5E7
:100410004FF4806404F1320410F0004548BF4042BC
:100420004FF000013EE700BF42004FEAE2014FEA11
:1004300031014FEA02701FBF12F07F4393F07F4FEC
:1004400081F06051704732F07F4208BF704793F0EF
:100450007F4F04BF41F40021704730B54FF4607402
:1004600001F0004521F000411CE700BF50EA010205
:1004700008BF704730B54FF000050AE050EA0102AE
:1004800008BF704730B511F0004502D5404261EB1E
:1004900041014FF4806404F132045FEA915C3FF45F
:1004A000D8AE4FF003025FEADC0C18BF03325FEAFC
:1004B000DC0C18BF033202EBDC02C2F1200300FAAD
:1004C00003FC20FA02F001FA03FE40EA0E0021FAD2
:1004D00002F11444BDE600BF70B54FF0FF0C4CF4C0
:1004E000E06C1CEA11541DBF1CEA135594EA0C0F72
:1004F00095EA0C0F00F0DEF82C4481EA030621EAAD
:100500004C5123EA4C5350EA013518BF52EA0335E7
:1005100041F4801143F4801338D0A0FB02CE4FF099
:100520000005E1FB02E506F00042E0FB03E54FF0C9
:100530000006E1FB03569CF0000F18BF4EF0010EC1
:10054000A4F1FF04B6F5007F64F5407404D25FEABD
:100550004E0E6D4146EB060642EAC62141EA555170
:100560004FEAC52040EA5E504FEACE2EB4F1FD0CB2
:1005700088BFBCF5E06F1ED8BEF1004F08BF5FEA30
:10058000500E50F1000041EB045170BD06F00046E2
:1005900046EA010140EA020081EA0301B4EB5C048F
:1005A000C2BFD4EB0C0541EA045170BD41F4801187
:1005B0004FF0000E013C00F3AB8014F1360FDEBFAC
:1005C000002001F0004170BDC4F10004203C35DA88
:1005D0000C341BDC04F11404C4F1200500FA05F30B
:1005E00020FA04F001FA05F240EA020001F00042AC
:1005F00021F0004110EBD37021FA04F642EB060122
:100600005EEA430E08BF20EAD37070BDC4F10C044B
:10061000C4F1200500FA04F320FA05F001FA04F20F
:1006200040EA020001F0004110EBD37041F10001FB
:100630005EEA430E08BF20EAD37070BDC4F1200506
:1006400000FA05F24EEA020E20FA04F301FA05F26E
:1006500043EA020321FA04F001F0004121FA04F216
:1006600020EA020000EBD3705EEA430E08BF20EAE6
:10067000D37070BD94F0000F0FD101F00046400020
:1006800041EB010111F4801F08BF013CF7D041EAA2
:10069000060195F0000F18BF704703F000465200A6
:1006A00043EB030313F4801F08BF013DF7D043EA77
:1006B0000603704794EA0C0F0CEA135518BF95EA2D
:1006C0000C0F0CD050EA410618BF52EA4306D1D1B4
:1006D00081EA030101F000414FF0000070BD50EAD3
:1006E000410606BF1046194652EA430619D094EA5D
:1006F0000C0F02D150EA013613D195EA0C0F05D147
:1007000052EA03361CBF104619460AD181EA03019A
:1007100001F0004141F0FE4141F470014FF0000052
:1007200070BD41F0FE4141F4780170BD70B54FF0ED
:10073000FF0C4CF4E06C1CEA11541DBF1CEA13556D
:1007400094EA0C0F95EA0C0F00F0A7F8A4EB05044F
:1007500081EA030E52EA03354FEA013100F0888046
:100760004FEA03334FF0805545EA131343EA12630F
:100770004FEA022245EA111545EA10654FEA0026C4
:100780000EF000419D4208BF964244F1FD0404F57D
:10079000407402D25B084FEA3202B61A65EB0305D9
:1007A0005B084FEA32024FF480104FF4002CB6EB96
:1007B000020E75EB030E22BFB61A754640EA0C0016
:1007C0005B084FEA3202B6EB020E75EB030E22BF56
:1007D000B61A754640EA5C005B084FEA3202B6EB97
:1007E000020E75EB030E22BFB61A754640EA9C0056
:1007F0005B084FEA3202B6EB020E75EB030E22BF26
:10080000B61A754640EADC0055EA060E18D04FEAE3
:10081000051545EA16754FEA06164FEAC30343EA83
:1008200052734FEAC2025FEA1C1CC0D111F4801F50
:100830000BD141EA00014FF000004FF0004CB6E749
:1008400011F4801F04BF01430020B4F1FD0C88BFE8
:10085000BCF5E06F3FF6AFAEB5EB030C04BFB6EBF3
:10086000020C5FEA500C50F1000041EB045170BDE6
:100870000EF0004E4EEA113114EB5C04C2BFD4EB13
:100880000C0541EA045170BD41F480114FF0000E97
:10089000013C90E645EA060E8DE60CEA135594EA13
:1008A0000C0F08BF95EA0C0F3FF43BAF94EA0C0F16
:1008B0000AD150EA01347FF434AF95EA0C0F7FF48B
:1008C00025AF104619462CE795EA0C0F06D152EADF
:1008D00003353FF4FDAE1046194622E750EA4106C3
:1008E00018BF52EA43067FF4C5AE50EA41047FF4D4
:1008F0000DAF52EA43057FF4EBAE12E74FF0FF3C39
:1009000006E000BF4FF0010C02E000BF4FF0010C09
:100910004DF804CD4FEA410C7FEA6C5C4FEA430C82
:1009200018BF7FEA6C5C1BD001B050EA410C0CBFD1
:1009300052EA430C91EA030F02BF90EA020F002033
:10094000704710F1000F91EA030F58BF994208BF9A
:1009500090422CBFD8176FEAE37040F00100704757
:100960004FEA410C7FEA6C5C02D150EA013C07D1AE
:100970004FEA430C7FEA6C5CD6D152EA033CD3D0F9
:100980005DF8040B704700BF8446104662468C46F3
:100990001946634600E000BF01B5FFF7B7FF002826
:1009A00048BF10F1000F01BD4DF808EDFFF7F4FF4F
:1009B0000CBF012000205DF808FB00BF4DF808EDDA
:1009C000FFF7EAFF34BF012000205DF808FB00BFFD
:1009D0004DF808EDFFF7E0FF94BF012000205DF81F
:1009E00008FB00BF4DF808EDFFF7CEFF94BF0120D4
:1009F00000205DF808FB00BF4DF808EDFFF7C4FFCD
:100A000034BF012000205DF808FB00BF4FEA410C15
:100A10007FEA6C5C02D150EA013C0AD14FEA430CF8
:100A20007FEA6C5C02D152EA033C02D14FF0000035
:100A300070474FF0010070474FEA410212F5001273
:100A400015D211D56FF47873B3EB625212D94FEA15
:100A5000C12343F0004343EA505311F0004F23FAFF
:100A600002F018BF404270474FF00000704750EA54
:100A7000013005D111F0004008BF6FF00040704711
:100A80004FF00000704700BF4A0011D212F500126B
:100A900011D20DD56FF47873B3EB62520ED44FEAD6
:100AA000C12343F0004343EA505323FA02F0704756
:100AB0004FF00000704750EA013002D14FF0FF3094
:100AC00070474FF0000070474FEA4102B2F1E04337
:100AD00024BFB3F5001CDCF1FE5C0DD901F0004C25
:100AE0004FEAC0024CEA5070B2F1004F40EB830075
:100AF00008BF20F00100704711F0804F21D113F1A1
:100B00003872BCBF01F00040704741F480114FEAD9
:100B10005252C2F11802C2F1200C10FA0CF320FA62
:100B200002F018BF40F001004FEAC1234FEAD3237F
:100B300003FA0CFC40EA0C0023FA02F34FEA4303E9
:100B4000CCE77FEA625307D150EA01331EBF4FF072
:100B5000FE4040F44000704701F0004040F0FE408D
:100B600040F40000704700BF80F0004002E000BF8A
:100B700081F0004142001FBF5FEA410392EA030F88
:100B80007FEA226C7FEA236C6AD04FEA1262D2EBD2
:100B90001363C1BFD218414048404140B8BF5B42D7
:100BA000192B88BF704710F0004F40F4000020F070
:100BB0007F4018BF404211F0004F41F4000121F086
:100BC0007F4118BF494292EA030F3FD0A2F10102D0
:100BD00041FA03FC10EB0C00C3F1200301FA03F10E
:100BE00000F0004302D5494260EB4000B0F5000F31
:100BF00013D3B0F1807F06D340084FEA310102F1F0
:100C00000102FE2A51D2B1F1004F40EBC25008BFA1
:100C100020F0010040EA03007047490040EB00006B
:100C2000013A28BFB0F5000FEDD2B0FA80FCACF16C
:100C3000080CB2EB0C0200FA0CF0AABF00EBC25099
:100C400052421843BCBFD0401843704792F0000F87
:100C500081F4000106BF80F400000132013BB5E7DA
:100C60004FEA41037FEA226C18BF7FEA236C21D050
:100C700092EA030F04D092F0000F08BF08467047B5
:100C800090EA010F1CBF0020704712F07F4F04D183
:100C9000400028BF40F00040704712F100723CBF96
:100CA00000F50000704700F0004343F0FE4040F4C0
:100CB000000070477FEA226216BF08467FEA23637E
:100CC0000146420206BF5FEA412390EA010F40F469
:100CD000800070474FF0000304E000BF10F00043B5
:100CE00048BF40425FEA000C08BF704743F096439C
:100CF00001464FF000001CE050EA010208BF7047B7
:100D00004FF000030AE000BF50EA010208BF70473D
:100D100011F0004302D5404261EB41015FEA010C52
:100D200002BF84460146002043F0B64308BFA3F14A
:100D30008053A3F50003BCFA8CF2083AA3EBC2532C
:100D400010DB01FA02FC634400FA02FCC2F120024B
:100D5000BCF1004F20FA02F243EB020008BF20F082
:100D60000100704702F1200201FA02FCC2F12002E8
:100D700050EA4C0021FA02F243EB020008BF20EADD
:100D8000DC70704738B50022002304460D46FFF79B
:100D900015FE28B920462946BDE8384000F00AB8BB
:100DA000204605F1004100F005F8404261EB4101A9
:100DB00038BD00BFD0B500220B4B06460F46FFF7EB
:100DC0008BFBFFF761FE0446FFF70CFB0022074B8D
:100DD000FFF782FB02460B4630463946FFF7C4F95F
:100DE000FFF752FE2146D0BD0000F03D0000F0416B
:100DF00008B50268054B9A4206D1054800F03CFC54
:100E0000FFF768FF034B186008BD00BF00240140D6
:100E100060030020AC030020B0F5805F08B50AD164
:100E2000282000F017FE084B012208481A60BDE890
:100E3000084001F04DBBB0F5005F04D1282000F060
:100E400009FE034BF0E708BDA8030020C402002000
:100E5000A40300200268264B10B59A42044611D123
:100E6000244801F05FFB4FF48052234B28205A6145
:100E70004FF400525A614FF48072204BC3F8842122
:100E800000F0DAFD2368B3F1804F30D14FF4005108
:100E90001B4800F0DDFE30B91A4B1A68012A02BF68
:100EA000194918600A601949194B0A68012A11D1B9
:100EB00001280FD142F20F741A680132A24213DCEA
:100EC000B2F5FA7F1A6011DB00220E4C2260114C41
:100ED00020600AE000241C600E4B01281C6005D134
:100EE00022B9084B186001E000221A60086010BDAA
:100EF000002C0140C40200200004014000E100E099
:100F0000000C01409003002098030020A003002063
:100F10009C0300209403002030B595B020220021CE
:100F20000BA802F094FD1422102500210DEB020005
:100F300002F08DFD2A46002101A802F088FD012360
:100F40000224CDE90E354FF460130AA80A941194D7
:100F5000139300F03DFF08B172B6FEE70F23CDE911
:100F600005344FF480630790CDE90830214605A889
:100F700001F004F908B172B6FEE74FF4404301A84E
:100F80000194039301F0B6F908B172B6FEE715B00B
:100F900030BD000080B502244FF480588CB000F0C2
:100FA00047FBFFF7B9FF1022002105A802F04FFD13
:100FB0008A4B4FF480419A69894842F004029A6151
:100FC0009A69002502F004020092009A9A694FF48F
:100FD000804742F008029A619A69012602F00802ED
:100FE0000192019A9A6942F010029A619B6900226B
:100FF00003F010030293029B00F030FE794B784817
:1010000005A9CDE90583079400F04AFD4FF4005E81
:10101000754B734805A9CDE905E3079400F040FD41
:101020006F4805A9CDE90754CDE9057600F038FDF4
:101030002A462946282000F0CFFC282000F0FCFC9E
:101040001022294605A802F002FD40F2A953674C80
:10105000674A2046C4E9002340F2F313CDE9035563
:10106000C4E90335C4E90555A56001F051FB08B199
:1010700072B6FEE7204605A9CDF8148001F02DFCDC
:1010800008B172B6FEE7CDE9030003A9204601F0DE
:10109000B5FC08B172B6FEE7564C574BCDE90500DA
:1010A00023604FF460230790A06020732075606078
:1010B0002046E361266100F0FDFB08B172B6FEE751
:1010C000CDE90506079005A9204600F04FFB05462F
:1010D00008B172B6FEE70146102205A802F0B7FC7F
:1010E0004FF0804C4FF47A43444CCDE903552046F1
:1010F000C4E900C3C4E902562561A56101F008FBFB
:1011000008B172B6FEE7204605A9CDF8148001F0BB
:10111000E4FB08B172B6FEE7CDE9030003A920465F
:1011200001F06CFC034608B172B6FEE73448354C5A
:10113000354AC0E90233C0E90042C0E90473C0E99E
:101140000633036200F09CFD044608B172B6FEE768
:101150000146CDE903001C2205A802F078FC2B48CB
:101160002B4B8460C0E9003640F6B8338461C0E997
:10117000033401F0F9FA08B172B6FEE70023234800
:1011800003A9CDE9033301F039FC08B172B6FEE7DB
:10119000602140F2DC530790CDE905130990042249
:1011A0001A4805A901F038FB044608B172B6FEE7FB
:1011B000164800F007F94FF4E1331648164AC0E923
:1011C0000244C0E900230C230461C0E90534C46172
:1011D00001F07EFC08B172B6FEE7FEE700100240A7
:1011E000000C01400000211000001110C40200207A
:1011F000002C014060030020002401407C020020FC
:101200000C03002000540040801A06003402002025
:1012100000040040F0010020004400400E4B82B06A
:101220009A6942F001029A619A6902F00102009201
:10123000009ADA6942F08052DA61DB69074A03F00A
:1012400080530193019B536823F0E06343F00073E4
:10125000536002B0704700BF001002400000014020
:1012600010B5044686B01022002102A802F0EFFB60
:101270002268144B9A4223D103F56C439A691248B1
:1012800042F400729A619A6902A902F40072009213
:10129000009A9A6942F004029A619B69012203F064
:1012A00004030193019B0323CDE9022300F0F8FB23
:1012B00000221220114600F08FFB122000F0BCFB30
:1012C00006B010BD002401400008014010B50446DE
:1012D00086B01022002102A802F0B9FB2268114B4F
:1012E0009A421CD1104CC022A369104843F0080355
:1012F000A361A36902A903F008030093009B1223D2
:10130000CDE902230323059300F0CAFBE36943F40C
:101310000013E361E36903F400130193019B06B03A
:1013200010BD00BF0054004000100240000C0140FE
:1013300007B50368174A934214D1174B19209A69CD
:1013400042F400629A6100229B69114603F4006333
:101350000093009B00F040FB192003B05DF804EB04
:1013600000F06ABBB3F1804F11D103F50433DA69A1
:101370001C2042F00102DA610022DB69114603F011
:1013800001030193019B00F027FB1C20E5E703B05C
:101390005DF804FB002C0140001002400268084B7D
:1013A00082B09A420AD103F50333DA6942F00202AD
:1013B000DA61DB6903F002030193019B02B070471D
:1013C0000004004010B5044686B01022002102A897
:1013D00002F03DFB2268104B9A421AD103F5033309
:1013E0009A690E4842F010029A619B69802203F0CC
:1013F00010030193019B022302A9CDE90223059367
:1014000000F04EFB064A536843F0E06343F4406348
:10141000536006B010BD00BF000400400010014042
:101420000000014010B5044686B01022002102A839
:1014300002F00DFB2268164B9A4226D103F5E633E3
:10144000DA69144842F40032DA61DA6902A902F476
:1014500000320092009A9A6942F004029A619B69F4
:10146000042203F004030193019B0223CDE902232C
:101470000323059300F014FB082100230548CDE960
:10148000021302A9049300F00BFB06B010BD00BFCD
:101490000044004000080140FEE7FEE7FEE7FEE7EB
:1014A000FEE770477047704700F0D4B8014800F07D
:1014B000E7B800BF60030020014801F04FB800BF4B
:1014C000C4020020014801F049B800BF7C0200209E
:1014D00008B54FF4805000F0C7FBBDE808404FF45A
:1014E000005000F0C1BB0120704708B502F002FBBC
:1014F000162303604FF0FF3008BD08B502F0FAFA7A
:1015000016230360FEE770B50D4614460E46731BA6
:101510009C4201DC204670BDAFF3008006F8010B51
:10152000F5E770B50D4614460E46731B9C4201DC70
:10153000204670BD16F8010BAFF30080F5E74FF0C1
:10154000FF3070474FF4005300204B60704701207C
:1015500070470020704700000B4A0346116810B521
:1015600009B90A491160106809490A4C0344091B6A
:101570008B4206D902F0BEFA0C2303604FF0FF3015
:1015800010BD1360FCE700BFB00300200805002079
:101590000050002000040000704700000C480D4976
:1015A0000D4A002302E0D458C4500433C4188C42BE
:1015B000F9D30A4A0A4C002301E013600432A24224
:1015C000FBD3FFF7E9FF02F09BFAFFF7E3FC70475C
:1015D00000000020D401002068760008D40100201B
:1015E00004050020FEE7000038B50E4B05461A78CA
:1015F0004FF47A73B3FBF2F30B4A1068B0FBF3F0CD
:1016000000F03AFA044658B90F2D09D80246294687
:101610004FF0FF3000F0E0F92046044B1D6038BD6C
:101620000120FCE70400002000000020080000204A
:10163000074A08B51368032043F01003136000F055
:10164000B9F90020FFF7D0FFFFF7E8FD002008BD43
:1016500000200240034A044B11681B780B441360BE
:10166000704700BFB403002004000020014B18683D
:10167000704700BFB40300200368D86C7047704700
:10168000036810B55A680446900627D51A68910772
:1016900024D5A26AD2065EBFA26A42F40072A26298
:1016A0009A6802F46022B2F5602F10D1227B72B9E1
:1016B0005A6822F020025A60A36A23F48073A3625E
:1016C000A36ADB045EBFA36A43F00103A362204662
:1016D000FFF78EFB6FF0120223681A6023685A68C6
:1016E000100630D51A6851072DD5A26AD2065EBF02
:1016F000A26A42F40052A2629A6802F4E042B2F591
:10170000E04F0AD05A68500516D49A6802F4602255
:10171000B2F5602F10D1227B72B95A6822F0800294
:101720005A60A36A23F48053A362A36AD9055EBFFB
:10173000A36A43F00103A362204600F039F96FF079
:101740000C0223681A6023685A6852060DD51B687C
:10175000DB070AD5A36A204643F48033A362FFF770
:101760008EFF6FF0010223681A6010BD002373B56D
:10177000019390F824300446012B6CD0012380F8AB
:1017800024304D680268062D086805EB850322D8D1
:101790001F26556B053B9E4025EA060500FA03F31C
:1017A0002B43536309288B6800EB40054FF007017A
:1017B00029D9D6681E3DA94026EA0101AB400B435A
:1017C000D360A0F11003012B25D90020002384F859
:1017D000243002B070BD0C2D4FF01F0509D8166BD8
:1017E000233B9D4026EA050500FA03F32B431363D0
:1017F000D8E7D66A413B9D4026EA050500FA03F387
:101800002B43D362CEE71069A94020EA0101AB4027
:101810000B431361D9E7114B9A4216D193681B020F
:10182000D3D49368102843F400039360CDD10C4BBC
:101830000C4A1B68B3FBF2F30A2253430193019B4A
:10184000002BC2D0019B013BF8E7A36A012043F0C3
:101850002003A362BAE70220BBE700BF00240140D7
:101860000000002040420F0038B5036804469A6823
:10187000D10701D4002038BD9A6822F001029A6095
:10188000FFF7F4FE054623689B68DB07F2D5FFF7F8
:10189000EDFE401B0228F6D923689B68DA07F2D5D3
:1018A000A36A012043F01003A362E36A43F001033B
:1018B000E362E0E7F8B5044600286DD0836A23B9F7
:1018C000C36280F82430FFF7CBFC2046FFF7CCFF43
:1018D000A36A13F0100361D100285FD1A26A616886
:1018E00022F4885222F0020242F00202E569A66860
:1018F000A262227B2943B6F5807F41EA420136D0BD
:10190000771E7D427D412D02277D012F06D182BBAE
:10191000A269013A45EA423242F400652268B6F50E
:10192000807F576827F4694745EA0705556097683F
:101930001D4D05EA070545EA0105956001D0012E18
:1019400002D12369013B1B05D56A25F470052B43A1
:10195000D3629268154B1340994213D10023E3627E
:10196000A36A23F0030343F00103A362F8BD3546E5
:10197000CAE7A26A42F02002A262E26A42F00102D1
:10198000E262CBE7A36A23F0120343F01003A362E1
:10199000E36A43F00103E3620120E7E7A36A43F04F
:1019A0001003A362F8E700BFFDF7E1FFFE0E1FFF83
:1019B0007047000007490302CA6803F4E06322F499
:1019C000E0621204120C134343F0BF6343F400338C
:1019D000CB60704700ED00E0154B30B5DC68C4F318
:1019E0000224C4F10703251D042B28BF0423062D60
:1019F0004FF0FF3594BF0024033C05FA03F321EABE
:101A00000303A54022EA0502A340002843EA02039B
:101A1000ACBF00F16040074A4FEA0313DBB2ABBF33
:101A200000F5614000F00F0080F80033135430BD22
:101A300000ED00E014ED00E0002807DB0123410980
:101A4000034A00F01F00834042F82130704700BF76
:101A500000E100E000280CDB01220649430900F008
:101A60001F008240203341F82320BFF34F8FBFF384
:101A70006F8F704700E100E00138B0F1807F0BD23A
:101A80004FF0E023F021054A586182F8231000202E
:101A9000072298611A6170470120704700ED00E04D
:101AA0002DE9F74F00242646DFF888C1624BDFF8A6
:101AB0008CE1DFF88C810A6832FA06F502D103B0B6
:101AC000BDE8F08F0127B74002EA070537EA0202B6
:101AD0007AD14A68032A07D8013A022A00F28380A1
:101AE000DFE802F092979D00122A00F095806DD8F1
:101AF000112A00F08B80FF2D98BF81464FF00F0B0D
:101B000088BF00F104094FEA8602D9F8007088BF47
:101B1000203A0BFA02FA27EA0A0704FA02F21743FC
:101B2000C9F80070D1F8049019F0805F4CD0DCF84F
:101B3000182026F0030742F00102CCF81820DCF848
:101B4000182007F1804702F00102019207F5803763
:101B500006F0030A019A4FEA8A0ABA680BFA0AFBEE
:101B600022EA0B0B374A90425DD002F58062904228
:101B70005BD002F58062904259D002F580629042BB
:101B800014BF0422032202FA0AF242EA0B02BA60EC
:101B90001A6819F4803F14BF2A43AA431A605A688E
:101BA00019F4003F14BF2A43AA435A609A6819F4F3
:101BB000801F14BF2A43AA439A60DA6819F4001FF1
:101BC00014BF2A43AA43DA60013674E7DFF878903D
:101BD0004A4508D010D8A9F580194A4503D0724566
:101BE00001D0424587D18A68DAB1012A4FF0080452
:101BF0000CBF076147617EE7DFF850904A45F2D09D
:101C000009F580394A45EDE7CC6874E7CC680434BF
:101C100071E7CC6808346EE7CC680C346BE70024BD
:101C200069E7042467E70022ADE70122ABE702225F
:101C3000A9E700BF0010024000040140000021108D
:101C400000001110000801400000221000003110B7
:101C50008368194214BF0120002070470AB1016156
:101C600070470904FBE70000044A08B551690142C6
:101C700002D05061FFF7D0F808BD00BF000401405A
:101C800070B5044608B9012070BD90F83D3003F0EE
:101C9000FF021BB980F83C20FFF718FB242384F8CF
:101CA0003D3023681A6822F001021A601A6842F473
:101CB00000421A601A6822F400421A6000F0FAFA30
:101CC0003F4B65689D4294BF3E4B3F4B98428CBF53
:101CD00000230123002BD6D1394E3C4BB542B0FB3B
:101CE000F3F388BF4FF496762268516821F03F01E4
:101CF00041EA030182BF73434FF47A76B3FBF6F3F4
:101D00005160116A013321F03F010B431362D16925
:101D1000431E2B4821F44F41854221F0FF0132D868
:101D20006D00B3FBF5F340F6FC700133034242D083
:101D3000C3F30B031943D1611168D4E9073021F0D3
:101D4000C00103430B4313609168D4E9030321F4FA
:101D50000341034321F0FF010B439360D168D4E9B1
:101D6000053021F0FF0103430B43D36013680020CB
:101D700043F0010313602023206484F83D30206386
:101D800084F83E0080E7A06850B905EB4505B3FB39
:101D9000F5F30133C3F30B037BB143F40043C9E70D
:101DA00019206843B3FBF0F30133C3F30B0323B1F2
:101DB00043F44043BEE70423BCE70123BAE700BF76
:101DC000A08601007F841E00FF083D0040420F00F6
:101DD0002DE9F341054638B30368DB0710D42B68BF
:101DE0009F075ED42B68190700F195802B685A076E
:101DF00000F1C180EB69002B40F02C81002029E02C
:101E0000904C636803F00C03042B07D0636803F065
:101E10000C03082B0AD16368DE0307D523689C03F3
:101E2000DDD56B68002BDAD1012013E06B68B3F5C8
:101E3000803F12D1236843F480332360FFF716FC00
:101E4000064623689803CAD4FFF710FC801B642859
:101E5000F7D9032002B0BDE8F0819BB9236823F4D1
:101E600080332360236823F480232360FFF7FEFB85
:101E7000064623689903B2D5FFF7F8FB801B642858
:101E8000F7D9E6E7B3F5A02F236803D143F4802305
:101E90002360CFE723F480332360236823F4802377
:101EA000CBE7684C636813F00C0F07D0636803F04E
:101EB0000C03082B10D16368DA030DD423689B0749
:101EC00002D52B69012BAFD123686A6923F0F8038F
:101ED00043EAC203236085E72A695B4B6AB10122AA
:101EE0001A60FFF7C3FB064623689F07ECD4FFF791
:101EF000BDFB801B0228F7D9ABE71A60FFF7B6FBE2
:101F00000646236898077FF56DAFFFF7AFFB801B90
:101F10000228F6D99DE7AA694A4E4B4BE2B101224D
:101F2000C3F88024FFF7A2FB0446736A9B070DD514
:101F30004FF4FA52454B1B68B3FBF2F3019300BF19
:101F4000019B5A1E0192002BF9D14FE7FFF78EFB40
:101F5000001B0228E9D97CE7C3F88024FFF786FB41
:101F60000446736A9F077FF541AFFFF77FFB001BB5
:101F70000228F6D96DE7334CE369D80024D4012751
:101F8000E36943F08053E361E36903F08053009316
:101F9000009B2F4E3368D90518D5EB68012B26D14D
:101FA000236A43F001032362FFF760FB41F28838A4
:101FB0000646236A9B073FD5002F3FF41BAFE3691A
:101FC00023F08053E36115E70027E2E7336843F429
:101FD00080733360FFF74AFB80463368DA05DCD450
:101FE000FFF744FBA0EB08006428F6D931E7ABB952
:101FF000236A41F2883823F001032362236A23F025
:1020000004032362FFF732FB0646236A9807D3D501
:10201000FFF72CFB801B4045F7D91AE7052B236AF5
:1020200003D143F004032362BAE723F001032362E0
:10203000236A23F00403B6E7FFF718FB801B404533
:10204000B7D906E70010024000004242000000201D
:10205000007000402A4C626802F00C02082A3ED050
:102060000022022B274B1A662CD1FFF7FFFA0646F7
:102070002368990120D42B6AB3F5803F05D16268AB
:10208000A96822F400320A436260696A62680B43FD
:1020900022F474121343012263601A4B1A66FFF78D
:1020A000E5FA054623689A013FF5A8AEFFF7DEFA88
:1020B000401B0228F6D9CCE6FFF7D8FA801B02288D
:1020C000D6D9C6E6FFF7D2FA054623689B017FF50D
:1020D00095AEFFF7CBFA401B0228F6D9B9E6012BE3
:1020E0003FF4A2AE60682B6A00F480329A427FF41B
:1020F0009BAE6B6A00F47010C01A18BF0120A9E6ED
:10210000001002400000424230B5184B87B002ACCC
:1021100003F11005224618685968083303C2AB4220
:102120001446F7D140F201231149ADF804304B6851
:1021300003F00C02082A17D1C3F3834218326A4411
:10214000DB0312F8100C0CD54B680A4AC3F340436A
:10215000504318336B4413F8143CB0FBF3F007B052
:1021600030BD054B5843FAE70248F8E718720008FB
:102170000010024000127A0000093D002DE9F041F4
:102180000D46044610B90120BDE8F081444A1368A9
:1021900003F007038B4228D321688E0730D4CA0787
:1021A00043D43F4A136803F00703AB4265D8226863
:1021B0003C4D12F0040F6CD1130706D56B682269F1
:1021C00023F4605343EAC2036B60FFF79DFF6B6823
:1021D000354AC3F30313D35CD840344B1860344BF7
:1021E0001868FFF701FA0020CEE7136823F0070311
:1021F0000B431360136803F007038B42C3D1CBE793
:10220000284B11F0040F1EBF5A6842F4E0625A6076
:10221000080742BF5A6842F460525A605A68A06880
:1022200022F0F00202435A60B9E762681D4E012AAB
:1022300033681AD113F4003FA5D0736841F288388F
:1022400023F0030313437360FFF710FA0746736824
:10225000626803F00C03B3EB820FA2D0FFF706FA1B
:10226000C01B4045F3D903208EE7022A02D113F0A8
:10227000007FE1E713F0020FDEE7136823F00703A6
:102280002B431360136803F00703AB427FF47BAF6B
:102290008DE76B68E16823F4E0630B436B608BE7C9
:1022A00000200240001002400872000800000020D8
:1022B00008000020044B054A5B68C3F30223D35C8B
:1022C000034A1068D84070470010024000720008AE
:1022D00000000020044B054A5B68C3F3C223D35CB3
:1022E000034A1068D840704700100240007200088E
:1022F0000000002003682DE9F3410546D80721D5E9
:10230000364CE369D9002BD40126E36943F08053AE
:10231000E361E36903F080530193019B304F3B6815
:10232000DA051FD5236A6A6813F440732ED1236A35
:102330006A6823F44073134323621EB1E36923F0F8
:102340008053E3612A68910706D52449A8684B6841
:1023500023F4404303434B60D30636D4002012E0FD
:102360000026DBE73B6843F480733B60FFF77EF9B0
:1023700080463B68DB05D5D4FFF778F9A0EB080071
:102380006428F6D9032002B0BDE8F08102F440725F
:102390009A42CCD00120134A236AC2F8400400209C
:1023A00023F44071DF07C2F840042162BFD5FFF774
:1023B0005DF941F288380746236A9807B7D4FFF7DA
:1023C00055F9C01B4045F7D9DCE7044AE968536872
:1023D00023F480030B435360C0E700BF00100240AA
:1023E0000070004000004242036A70B523F0010310
:1023F0000362036A446882690D6822F073022A430B
:102400008D6823F002032B430A4DA8420BD1CD68FF
:1024100023F008032B4324F44074D1E905563543D7
:1024200023F004032C43446082614A6842630362E0
:1024300070BD00BF002C0140036A70B523F48073A7
:102440000362036A4468C2690D6822F073022A437A
:102450008D6823F4007343EA05230B4DA8420DD188
:10246000CD6823F4006343EA052324F44054D1E902
:102470000556354323F4806344EA05144460C26181
:102480004A68C263036270BD002C0140036A30B524
:1024900023F480530362036A4468C2690D6822F41E
:1024A000E64242EA05228D6823F4005343EA0533ED
:1024B000064DA84202BF4D6924F4804444EA8514C5
:1024C0004460C2614A680264036230BD002C01406E
:1024D00090F83D30012B20D1022380F83D30036875
:1024E000DA6842F00102DA600D4A93420AD0B3F191
:1024F000804F07D0A2F59432934203D002F5806258
:10250000934204D19A6802F00702062A03D01A689F
:1025100042F001021A60002070470120704700BF9E
:10252000002C01400368DA6822F00102DA6041F20F
:102530001112196A114208D140F24442196A11423B
:1025400002BF1A6822F001021A60012380F83D30B0
:10255000002070477047704770477047036810B598
:102560001A69044691070ED5DA6892070BD56FF009
:1025700002021A61012202779B699B0777D0FFF75D
:10258000EAFF0023237723681A69500710D5DA6819
:1025900051070DD56FF004021A61022222779B6960
:1025A000204613F4407F68D0FFF7D5FF0023237740
:1025B00023681A6912070FD5DA6810070CD56FF077
:1025C00008021A6104222277DB69204699075AD053
:1025D000FFF7C1FF0023237723681A69D20610D5BD
:1025E000DA68D0060DD56FF010021A610822227742
:1025F000DB69204613F4407F4BD0FFF7ACFF00238C
:10260000237723681A69D10708D5DA68D20705D578
:102610006FF0010220461A61FEF71CFC23681A695C
:10262000100608D5DA68110605D56FF0800220463D
:102630001A6100F012FA23681A69520608D5DA689E
:10264000500605D56FF0400220461A61FFF785FF5E
:1026500023681A69910622D5DA6892061FD56FF0B1
:1026600020022046BDE810401A6100F0F5B9FFF7DE
:1026700071FF2046FFF770FF83E7FFF76BFF2046EF
:10268000FFF76AFF92E7FFF765FF2046FFF764FF59
:10269000A0E7FFF75FFF2046FFF75EFFAFE710BD43
:1026A0001A4A036890420AD0B0F1804F07D0A2F5D1
:1026B0009432904203D002F58062904215D14A686C
:1026C00023F070031343114A90420AD0B0F1804FB7
:1026D00007D0A2F59432904203D002F58062904276
:1026E00003D1CA6823F4407313434A6923F080037B
:1026F000134303608B68C3620B688362034B984289
:1027000004BF0B690363012343617047002C014040
:1027100010B5044630B390F83D3003F0FF021BB90A
:1027200080F83C20FEF704FE0223206884F83D3048
:10273000211DFFF7B5FF0123002084F8463084F8FF
:102740003E3084F83F3084F8403084F8413084F8DB
:10275000423084F8433084F8443084F8453084F8BB
:102760003D3010BD0120FCE710B5044630B390F8B1
:102770003D3003F0FF021BB980F83C20FEF70EFE4F
:102780000223206884F83D30211DFFF789FF0123D3
:10279000002084F8463084F83E3084F83F3084F8D6
:1027A000403084F8413084F8423084F8433084F873
:1027B000443084F8453084F83D3010BD0120FCE7FA
:1027C000036A70B523F010030362036A44688269E8
:1027D0000D6822F4E64242EA05228D6823F02003C8
:1027E00043EA05130B4DA8420DD1CD6823F08003B9
:1027F00043EA051324F44064D1E90556354323F038
:10280000400344EA8504446082614A68826303624B
:1028100070BD00BF002C014038B590F83C30044634
:10282000012B4ED00123082A80F83C3039D006D83D
:10283000BAB1042A25D0002084F83C0038BD0C2A07
:10284000F9D10068FFF722FEC3690A6943F4006307
:10285000C361C36923F48063C361C36943EA02238C
:102860002DE00068FFF7C0FD83690A6943F00803A3
:102870008361836923F00403836183691343836164
:10288000D9E70068FFF79CFF83690A6943F4006396
:102890008361836923F480638361836943EA02234C
:1028A000EDE70068FFF7C8FDC3690A6943F0080354
:1028B000C361C36923F00403C361C3691343C361E4
:1028C000B9E70220BAE710B584680A4324F47F44CC
:1028D00042EA03222243826010BD38B590F83C30B2
:1028E0000446012B4FF0020027D0012384F83D005D
:1028F000206884F83C30836823F47F4323F0770317
:1029000083600B68602B4AD031D8402B5FD015D83C
:10291000202B03D009D833F0100208D1826822F0AE
:102920007002134343F0070337E0302BF6D0012346
:10293000002084F83D3084F83C0038BD502BF6D19F
:102940004A68CD68016A036A21F00A0123F0010395
:10295000036283690A4323F0F00343EA05138361AA
:102960000262836823F0700343F0570315E0702B75
:102970000BD0B3F5005FDAD1CB68D1E90121FFF7C5
:10298000A2FF836843F4804307E0CB68D1E90121CB
:10299000FFF799FF836843F077038360C7E7036A13
:1029A0004D6823F01003C96803628269036A22F448
:1029B000704223F0A00343EA051342EA0132826128
:1029C0000362836823F0700343F06703E5E74A6816
:1029D000CD68016A036A21F00A0123F00103036252
:1029E00083690A4323F0F00343EA0513836102621B
:1029F000836823F0700343F04703CEE730B590F8C7
:102A00003C300246012B4FF0020022D0136882F8BE
:102A10003D005C680D6824F070042C4398685C608D
:102A20000C4CA3420AD0B3F1804F07D0A4F59434E4
:102A3000A34203D004F58064A34204D1496820F086
:102A40008000014399600123002082F83D3082F824
:102A50003C0030BD002C01407047704710B5044663
:102A60000368C1681A6922F440520A431A618268F5
:102A70000069D9680243606921F4B05121F00C016A
:102A800002430A43DA605A69A16922F440720A4398
:102A90005A610E4A934215D1FFF71CFC1923434398
:102AA000626820689200B3FBF2F36422B3FBF2F198
:102AB00002FB11331B013233B3FBF2F303EB0113BF
:102AC000836010BDFFF7F6FBE8E700BF0038014068
:102AD00010B5044640B390F83D3003F0FF021BB937
:102AE00080F83C20FEF79EFC2423226884F83D30C9
:102AF000D368204623F40053D360FFF7AFFF236869
:102B000000201A6922F490421A615A6922F02A02BE
:102B10005A61DA6842F40052DA602023206484F8B3
:102B20003D3084F83E3010BD0120FCE7002B2DE93C
:102B3000F0471D46BBBF03F100431D4600232D2374
:102B400088B01446B8BF1446129A109E1370149B96
:102B5000DDF84CA023F02008B8F1460F05D0B8F1FD
:102B6000450F00D10136022300E0032307AA049297
:102B700006AACDE902A2CDE9003622462B4601F095
:102B800083F8B8F1470F074619D1119BDB070ED523
:102B900000EB06090022002320462946FDF704FF2A
:102BA00008B1CDF81C903022079B4B451ED3384608
:102BB000079B159ADB1B136008B0BDE8F087B8F1DE
:102BC000460F00EB0609E5D10378302B0AD100222D
:102BD000002320462946FDF7E7FE18B9C6F1010695
:102BE000CAF80060DAF800309944D3E7591C07911D
:102BF0001A70D9E7F7B50029B6BF2D232B23494218
:102C000009290270437029DD0DF107031D460A27CB
:102C1000B1FBF7F61A4607FB1614303402F8014CE4
:102C20000C46632C314603F1FF33F1DC3031941E46
:102C300003F8011C2346411CAB420AD30DF10903E2
:102C40009B1AAC4288BF002302330344181A03B016
:102C5000F0BD13F8016B01F8016FEDE7302330315F
:102C60008370C170031DF1E72DE9F04F91B00C4660
:102C7000DDF8688016461F46054600F0F1FE036841
:102C800018460893FDF764FA00230E93D8F8003035
:102C90000990073323F0070303F1080294F818A002
:102CA000D4F800B0C8F80020D3E9008929F0004327
:102CB0000B93CDF828804FF0FF32DDE90A01C4E91B
:102CC00012899C4BFDF7A2FE70BBDDE90A014FF0B3
:102CD000FF32984BFDF77CFE30BB002200234046BC
:102CE0004946FDF76BFE10B12D2384F84330924A1C
:102CF000924BBAF1470F94BF9046984603234FF08A
:102D0000000923612BF00403236033462146284643
:102D100000970FAA00F0D4F9013040F090804FF0F6
:102D2000FF3011B0BDE8F08F42464B464046494661
:102D3000FDF76CFE48B14B46002BB8BF2D23804AEF
:102D4000B8BF84F843307F4BD3E763680AF0DF01F4
:102D50005A1C3FD10623636000224BF4806323603A
:102D600006920EAACDE904A20DAA03920DF1330238
:102D7000CDE9013263684246009328464B460A91EA
:102D8000FFF7D4FE0A99804647290D9928D1C81C1F
:102D900002DB6368994240DDAAF1020A5FFA8AFA0F
:102DA0005246013904F150000D91FFF723FF0E9AAE
:102DB00081461318012A236102DC2268D20701D55B
:102DC000013323619DF83330002B9ED02D2384F8EE
:102DD00043309AE74729BFD1002BBDD10123BAE781
:102DE000BAF1650FDCD9BAF1660F18D10029636812
:102DF0000BDD216113B92268D00702D501330B44E2
:102E000023614FF00009A165DCE713B92268D207FE
:102E100001D50233F4E70123F2E74FF0670A0E9B76
:102E2000994205DB23682161D807EAD54B1CE7E707
:102E30000029CCBF0122C1F102021344E0E723685C
:102E40005A0507D42369424631462846B84701301F
:102E50002BD164E7BAF1650F40F2DC80D4E91201AE
:102E600000220023FDF7A0FD002833D001233146C6
:102E70002846354AB84701303FF451AFDDE90D38F7
:102E8000434502DB2368D8070FD5DDE90823314627
:102E90002846B84701303FF442AF4FF0000908F12F
:102EA000FF3804F11A0AC84509DC23689B0700F1C2
:102EB0000281E0680F9B9842B8BF184631E70123B2
:102EC000524631462846B84701303FF428AF09F151
:102ED0000109E8E70D9B002B38DC01233146284629
:102EE000194AB84701303FF41AAFDDE90D3959EA04
:102EF000030302D12368D907D7D5DDE9082331467A
:102F00002846B84701303FF40AAF4FF0000A04F1F9
:102F10001A0B0D9B5B42534501DC4B4693E70123A3
:102F20005A4631462846B84701303FF4F8AE0AF118
:102F3000010AEEE7FFFFEF7F297200082D720008FB
:102F4000317200083572000839720008A36DDDF88F
:102F500038A05345A8BF5346002B994636DC4FF0A6
:102F6000000B29EAE97904F11A02A36D0A93A3EB95
:102F700009035B4531DC0D9B9A453ADC2368DA078F
:102F800037D40D9BAAEB03090A9BAAEB03039945CF
:102F9000A8BF9946B9F1000F33DC4FF0000829EAC9
:102FA000E97904F11A0B0D9BAAEB0303A3EB0903C8
:102FB00043457FF77AAF01235A4631462846B84742
:102FC00001303FF4ACAE08F10108ECE7424631466F
:102FD0002846B8470130C2D1A1E601233146284630
:102FE0000A92B84701303FF49AAE0A9A0BF1010BEE
:102FF000BBE73146DDE908232846B8470130C0D198
:103000008DE60A9A4B46314628464244B84701307D
:10301000C3D184E6DDF838A0BAF1010F01DCDB078B
:1030200036D50123424631462846B84701303FF4A1
:1030300076AEDDE9082331462846B84701303FF433
:103040006EAED4E91201002200230AF1FF3AFDF727
:10305000ABFCC0B9534608F1010231462846B847D7
:1030600001300CD15BE601235A4631462846B84769
:1030700001303FF454AE08F10108D045F3DB4B4674
:1030800004F15002E0E64FF0000804F11A0BF4E7F7
:1030900001234246E1E701234A4631462846B84724
:1030A00001303FF43CAE08F10108E3680F995B1A68
:1030B0004345F0DCFDE64FF0000804F11909F4E7A0
:1030C0002DE9F047164698468A680B6907469342F1
:1030D000B8BF1346336091F843200C46DDF82090CA
:1030E0000AB1013333602368990642BF3368023363
:1030F0003360256815F0060506D104F1190AE36866
:1031000032689B1AAB422BDC94F843302268003BB8
:1031100018BF0123920630D44146384604F14302D9
:10312000C847013023D02368226903F00603042B2B
:1031300014BF002533684FF0000608BFE56804F1AE
:103140001A0408BFED1A54F8123C08BF25EAE575C9
:103150009342C4BF9B1AED18B5421AD1002008E073
:103160000123524641463846C847013003D14FF04B
:10317000FF30BDE8F0870135C1E73020E11881F864
:1031800043005A1C94F845102244023382F843103D
:10319000C2E70123224641463846C8470130E6D0FF
:1031A0000136D9E72DE9FF470F7E9146782F8046FB
:1031B0000C469A460C9E01F1430207D8622F0AD8AA
:1031C000002F00F0D380582F00F0BA8004F142069F
:1031D00084F842703AE0A7F16303152BF6D801A1F9
:1031E00051F823F03D32000851320008CD3100087B
:1031F000CD310008CD310008CD3100085132000832
:10320000CD310008CD310008CD310008CD310008A6
:10321000533300087B3200080D330008CD3100081D
:10322000CD31000875330008CD3100087B3200082D
:10323000CD310008CD3100081533000833681A1D60
:103240001B68326004F1420684F8423001239EE09C
:1032500033682068191D3160060601D51D6803E03A
:103260004506FBD5B3F90050002D03DA2D236D423E
:1032700084F843300A23594811E02168336808066E
:1032800053F8045B02D4490648BFADB26F2F3360D8
:1032900014BF0A2308235148002184F843106668AC
:1032A000002EA8BF2168A660A4BF21F00401216000
:1032B0000DB9002E4BD01646B5FBF3F103FB1157A9
:1032C000C75D06F8017D2F46BB420D46F4D9082B99
:1032D0000BD12368DF0708D5236961689942DEBFF7
:1032E000302306F8013C06F1FF36921B22614B4663
:1032F00021464046CDF800A003AAFFF7E1FE0130C9
:103300004AD14FF0FF3004B0BDE8F087236843F0A6
:10331000200323607827324884F845702368316899
:103320001F0651F8045B02D45F0648BFADB231609E
:10333000D90744BF43F0200323601DB11023ABE73E
:103340002648E9E7236823F020032360F6E71646C2
:10335000BDE733682568181D616930602E061B685B
:1033600001D5196002E06806FBD5198000231646D6
:103370002361BCE7336800211A1D32601E68626851
:10338000304600F0E4FB08B1801B60606368236195
:10339000002384F84330AAE7324649464046236971
:1033A000D0470130ADD023689B0713D4E068039B5E
:1033B0009842B8BF1846A6E7012332464946404620
:1033C000D04701309DD00135E36803995B1AAB42C9
:1033D000F2DCEBE7002504F11906F5E73B72000883
:1033E0004C7200082DE9F04F87B003938B681746A5
:1033F0005A1EB2F5AE7F82BF6FF4AE7503EB050BBC
:1034000040F25D130A464FF0000588BF8B600B68E1
:10341000804643F4F06342F81C3B0C4698BF4FF0E3
:10342000000B1646AA46A946CDE90455019202951D
:10343000A26852B13B681B784E2B65D8402B3DD813
:10344000A3F12B01C8B20E283BD9B9F1000F03D06C
:10345000236823F4807323600AF1FF3ABAF1010F65
:1034600000F21881019B9E4200F20981012007B001
:10347000BDE8F08FA3F161020D2AE6D801A151F851
:1034800022F000BFCB3500084B3400084B34000855
:103490004B3400082B360008033600084B34000874
:1034A0004B340008D93500084B3400084B34000871
:1034B0004B3400084B34000891350008A3F1410259
:1034C000DAE70E29C1D801A050F821F081350008B3
:1034D0004B34000881350008173600084B340008CB
:1034E000293500086735000867350008673500088A
:1034F000673500086735000867350008673500083C
:1035000067350008673500086E2B09D8602BB1D8E5
:10351000542B7BD0592B98D1072D96D108252CE020
:10352000742B73D0792BF6E72168C8051BD521F0E1
:103530008001216009F10109BBF1000F03D00132C4
:103540000BF1FF3BA260A368013BA3602369013339
:1035500023617B68013B002B7B6040F387803B68E5
:1035600001333B6064E71AEB05017FF46EAF0D4653
:103570008A46226822F4C072226006F8013BE2E724
:10358000226810067FF561AF22F080022260F4E726
:10359000BAF1000F0ED1B9F1000F0ED1226802F47A
:1035A000E061B1F5E06F08D122F4F0624FF0010A5A
:1035B0002260E2E7BAF1020F55D0012D02D0042DAE
:1035C0007FF443AF0135EDB2D7E7BAF1010F7FF4D5
:1035D0003CAF4FF0020AD0E77DB9B9F1000F7FF49C
:1035E00037AF226802F4E061B1F5E06F40F003818B
:1035F00022F4F06201252260BFE7032DE2D0052D01
:10360000DEE7022D7FF421AF0325B6E7062D7FF418
:103610001CAF0725B1E7226891057FF516AF22F4AC
:1036200020722260CDF80890A7E7226802F4A0611A
:10363000B1F5806F06D050057FF507AFB9F1000FE7
:1036400000F0D980910558BF029922F4F06258BF6A
:10365000A9EB010142F4C0724FF0000958BFCDE957
:103660000416226089E74FF0030A86E73946404690
:10367000D4F88031984700283FF4DAAEE5E6D4F874
:103680007C313A46404616F8011D98472369013BB4
:103690002361E7E66B1E062B24D8022D36D8019B4A
:1036A0009E427FF6E3AED4F87C313A46404616F8A7
:1036B000011D98472369013B2361F0E7D4F87C3171
:1036C0003A4640461BF8011D98472369013B236198
:1036D0000AF1FF3A5FFA8AFABAF1020FEED1033D1E
:1036E000EDB2761B2368DA0530D55B0511D5019B59
:1036F0009E427FF6BBAED4F87C313A46404616F87F
:10370000011D98472369013B2361F0E7AA46B346B0
:10371000DEE716F8011C2369652903F1FF3306F182
:10372000FF3523610CD045290AD0D4F87C313A46C4
:1037300040469847236916F8021C013BB51E2361D9
:103740003A464046D4F87C3198472E46226812F01B
:10375000100201D000208AE63270236803F4C063AF
:10376000B3F5806F1CD1029B4B45A3EB090223D11B
:1037700000224046019902F0EFFB039B25681B687D
:1037800015F0020F06460F4603F104021FD00399FD
:103790000A601B68C3E90067E3680133E360D9E7A7
:1037A000049B002BE4D005990A234046013102F026
:1037B00053FC049B059EC21A04F26F139E4228BF5D
:1037C00004F5B77630460D4900F0DEF8D0E76D0716
:1037D000DDD4039D2A601D6802460B46FDF716F9ED
:1037E00020B1074800F0C2F92860D5E730463946D5
:1037F000FDF76AF9F8E74FF000092DE65D72000861
:10380000F5750008002310B50446C0E90033C0E98F
:103810000433836081814366C28183611946082233
:103820005C3000F014F90D4B246263620C4BA36210
:103830000C4BE3620C4B23630C4B9C4206D003F110
:103840006802944202D0D0339C4205D104F1580062
:10385000BDE8104000F078B910BD00BFC9390008BC
:10386000EB390008233A0008473A0008B803002063
:10387000024A0349034800F069B800BF0C00002069
:103880000D6400081C00002041680C4B10B59942E3
:10389000044601D002F0BAFDA168094B994202D05A
:1038A000204602F0B3FDE168064B994204D0204661
:1038B000BDE8104002F0AABD10BD00BFB803002053
:1038C000200400208804002010B50B4B0B4C0C4A40
:1038D00020461A6004210022FFF794FF04F16800DB
:1038E00001220921FFF78EFF04F1D0000222BDE87A
:1038F00010401221FFF786BFF0040020B80300201B
:1039000071380008014800F020B900BFF904002018
:10391000014800F01BB900BFF904002010B50446AF
:10392000FFF7F0FF236A1BB1BDE81040FFF7F0BFBF
:10393000044B2362044B1B68002BF5D1FFF7C4FF37
:10394000F2E700BF89380008F00400202DE9F843B1
:103950000746884614460026D4E90195B9F10109C5
:1039600005D52468002CF7D13046BDE8F883AB8933
:10397000012B07D9B5F90E30013303D0294638465B
:10398000C04706436835E9E70EB46FF0004100B563
:103990009CB01DAB0290069007910491084809491C
:1039A00053F8042B0591006802A9019302F0B2FBC1
:1039B0000022029B1A701CB05DF804EB03B0704744
:1039C000180000200802FFFF10B50C46B1F90E10D8
:1039D00000F06CF80028ABBF636DA3891B1823F4BB
:1039E0008053ACBF6365A38110BD2DE9F0411F4634
:1039F0008B890546DB050C46164605D502230022B9
:103A0000B1F90E1000F040F8A389324623F4805338
:103A1000A38128463B46B4F90E10BDE8F04100F002
:103A200057B810B50C46B1F90E1000F02DF8431C34
:103A3000A38915BF606523F4805343F48053A381A9
:103A400018BFA38110BDB1F90E1000F00DB80346E8
:103A50000244934200D1704703F8011BF9E70000CC
:103A6000004870475801002038B50023054D044632
:103A700008462B60FDF763FD431C02D12B6803B1A0
:103A8000236038BDF404002038B5044608461146CA
:103A90000022054D2A601A46FDF75BFD431C02D14A
:103AA0002B6803B1236038BDF404002038B5044608
:103AB000084611460022054D2A601A46FDF723FDEF
:103AC000431C02D12B6803B1236038BDF4040020ED
:103AD00038B50446084611460022054D2A601A46AC
:103AE000FDF71FFD431C02D12B6803B1236038BDD5
:103AF000F4040020014B1868704700BF1800002034
:103B000070B500260C4D0D4C641BA410A64209D1C3
:103B100003F068FB00260A4D0A4C641BA410A64261
:103B200005D170BD55F8043B98470136EEE755F8CE
:103B3000043B98470136F2E760760008607600089B
:103B40006076000864760008704770477047034647
:103B500010B5C9B202449342184601D1002003E0D7
:103B6000047801338C42F6D110BD00000048704744
:103B70000000C07F2DE9F74F03690C690746A34297
:103B80007EDB013CA30000F1140501F11408009351
:103B900005EB8403019358F8243055F824200133B1
:103BA0009A42B2FBF3F608EB84092ED34FF0000AD9
:103BB000C446AE46D3465CF8043B98B206FB00A070
:103BC0001B0C020C06FB0323DEF8002080B292B22D
:103BD000121A5A44DEF800004FEA134A9BB2C3EBB4
:103BE000224303EB104392B242EA0342E1454FEA1B
:103BF000234B4EF8042BDED2009BEB582BB9019BD4
:103C0000043B9D421A462FD33C61384601F0C4F96B
:103C1000002825DB2946002058F8042BD1F800C0E5
:103C20001FFA82FE1FFA8CF3A3EB0E030344120C5F
:103C3000C2EB234202EB1C429BB243EA0243C14562
:103C40004FEA224041F8043BE6D255F8242005EB28
:103C5000840322B9043B9D421A460BD33C610136D2
:103C6000304603B0BDE8F08F1268043B002ACBD188
:103C7000013CC6E71268043B002AEFD1013CEAE7A9
:103C80000020EEE7000000002DE9F04F14461D462D
:103C9000C76997B08346CDE90245239E7FB91020BE
:103CA00000F002FE0246CBF81C0020B9EF21A84B21
:103CB000A84802F023FCC0E901770760C760DBF881
:103CC0001C30196859B15A68012393404A608B60CF
:103CD000584600F0DFFE0022DBF81C301A602B1E75
:103CE000AFBF0023012223F000430393A8BF33603A
:103CF000DDF80C80984BB8BF326033EA080312D16C
:103D000042F20F73229A1360C8F31303234300F0A7
:103D10005085249BDFF844A2002B00F052850AF165
:103D2000030300F04CBDDDE90223CDE90C23DDE9FE
:103D30000C0100220023FCF737FE074658B101238F
:103D4000229A1360249B13B1854B249A1360DFF8E9
:103D500014A200F036BD14AB019315AB0093584686
:103D6000DDE90C2301F030FAC8F30A568146002E33
:103D700077D0DDE90C010D9BA6F2FF36C3F31303E8
:103D800043F07F5343F44013129719460022764BB9
:103D9000FCF7EAF968A3D3E90023FCF79DFB68A3CD
:103DA000D3E90023FCF7E2F9044630460D46FCF760
:103DB00029FB65A3D3E90023FCF78EFB02460B46E3
:103DC00020462946FCF7D2F904460D46FCF734FE9E
:103DD00000220746002320462946FCF7EFFD40B1AC
:103DE0003846FCF70FFB22462B46FCF7DDFD00B9F9
:103DF000013F162F53D8DDE90C015C4B03EBC703E1
:103E0000D3E90023FCF7DAFD00284AD00023013F64
:103E10000F93149B9B1B5A1E46BFC3F1010800233E
:103E20004FF00008099248BF0993002F3BDB099B24
:103E30000E973B44099300230A93209B092B66D8D5
:103E4000052BC4BF043B2093209BC8BF0024A3F1D3
:103E50000203D8BF0124032B64D8DFE803F02B381A
:103E60003656DDE914631E4406F23243202BC1BFEF
:103E7000C3F1400308FA03F806F2124324FA03F3ED
:103E8000D6BFC3F1200348EA030004FA03F0FCF7AD
:103E9000A9FA0122A1F1F873013E129275E70123FC
:103EA000B6E70F90B5E77B420A930023A8EB07081B
:103EB0000E93C2E700230B93219B002B35DC0123DB
:103EC0001A46CDE9073321920BE00123F3E70023E3
:103ED0000B93219BFB1808930133012B0793B8BF69
:103EE000012300210422DBF81C0002F114059D428D
:103EF0001FD94160584600F08DFD8246002839D117
:103F0000024640F2AF111A4BD2E60123E0E701244A
:103F100000230B9420934FF0FF330022CDE90733A9
:103F20001223D0E701230B93F5E7219BCDE907335B
:103F3000D7E701315200D8E761436F63A787D23FCB
:103F4000B3C8608B288AC63FFB799F501344D33F88
:103F50006F720008867200080000F07F6B72000824
:103F60003A720008397200080000F83F80730008B8
:103F7000DE720008DBF81C301860079B0E2B00F285
:103F8000A480002C00F0A180002F33DD864B07F0C9
:103F90000F0203EBC203F805D3E90034CDE9043482
:103FA0004FEA271416D5DDE90C01804B0326D3E92F
:103FB0000823FCF7BBFBCDE9020104F00F047B4DA5
:103FC00054B9DDE90423DDE90201FCF7AFFBCDE9DB
:103FD000020128E00226F2E7E10708D5DDE9040145
:103FE000D5E90023FCF778FACDE904010136641025
:103FF0000835E5E700F0D280DDE90C017C426A4B30
:1040000004F00F0203EBC203D3E90023FCF764FAC8
:1040100002260023CDE90201644D2411002C40F05A
:10402000B280002BD3D1DDE902450F9B002B00F0BD
:10403000B7800022204629465D4BFCF7BFFC0028D4
:1040400000F0AE80079B002B00F0AA80089B002B9D
:1040500037DD7B1E2046049300222946554BFCF792
:104060003BFACDE90201089C01363046FCF7CAF95B
:10407000DDE90223FCF730FA00224F4BFCF776F81B
:104080000546A1F15076002C40F09A80DDE902014E
:1040900000224A4BFCF768F802460B46CDE90223A2
:1040A0002A463346FCF7A8FC002840F08E82DDE962
:1040B00002012A4606F10043FCF780FC002840F08C
:1040C0002781DDE90C34CDE90234159B002BC0F2C9
:1040D00063810E2F00F36081334B03EBC703D3E9F9
:1040E0000034CDE90434219B002B03DA079B002B1D
:1040F00040F30081DDE902455646DDE90423204610
:104100002946FCF713FBFCF797FC8046FCF77AF98D
:10411000DDE90423FCF7E0F902460B462046294678
:10412000FCF722F808F13004079D06F8014BA6EBD6
:104130000A04A54202460B4640F01681FCF716F829
:10414000DDE9042304460D46FCF756FC002840F048
:10415000F880DDE9042320462946FCF725FC18B148
:1041600018F0010F40F0ED804946584600F092FCEF
:1041700000233370229B01371F60249B002B00F02B
:1041800020831E601DE3E20705D5D5E90023FCF777
:10419000A3F901230136641008353FE7022642E700
:1041A000079C049761E700BF8073000858730008FC
:1041B0000000F03F0000244000001C4000001440BC
:1041C000704B0B9903EBC40353E9022354440029B9
:1041D00045D000206C49FCF7A9FA33462A46FBF784
:1041E000C3FF5646CDE91001DDE90201FCF724FCCE
:1041F0000546FCF707F902460B46DDE90201FBF72D
:10420000B3FF02460B463035CDE90223DDE910232A
:1042100006F8015BFCF7D2FB002863D1DDE902233D
:1042200000205A49FBF7A0FFDDE91023FCF7C6FB8D
:10423000002840F08780A6423FF443AFDDE910013B
:104240000022534BFCF748F90022CDE91001DDE9CB
:1042500002014F4BFCF740F9CDE90201C4E73146BA
:104260002846FCF739F95646CDE910011394DDE9EB
:104270000201FCF7E1FB0546FCF7C4F802460B46D9
:10428000DDE90201FBF770FF02460B46303506F808
:10429000015BA642CDE902234FF0000224D1DDE903
:1042A0001001394BFBF762FF02460B46DDE90201C4
:1042B000FCF7A2FB002845D1DDE91023002032499C
:1042C000FBF752FF02460B46DDE90201FCF776FBE5
:1042D00000283FF4F6AE139E731E139316F8013CAC
:1042E000302BF8D0049F3FE7294BFCF7F5F8CDE9D8
:1042F0000201BCE70CD1DDE904010022254BFCF7EB
:10430000EBF8DDE90223FCF76DFB002800F05B8190
:1043100000242546219B5646DB4304930027214673
:10432000584600F0B7FB002DDCD02FB1AF4203D0D0
:104330003946584600F0AEFB2946584600F0AAFB25
:10434000D0E7049733461E4613F8012D392A07D1CA
:104350009A45F8D1049A0132049230228AF800205A
:104360001A7801321A70BDE70022094BFCF7B4F845
:104370000022002304460D46FCF716FB00283FF4FC
:10438000BCAEF1E6807300080000E03F0000F03FA3
:1043900000002440000014400B9A002A00F0DB804B
:1043A000209A012A00F3BF80129A002A00F0B780F9
:1043B00003F2334346460A9C099A01211A4458469F
:1043C0009844099200F064FC05465EB1099B002BFD
:1043D00008DDB342A8BF3346099AA8EB0308F61AD2
:1043E000D31A09930A9BF3B10B9B002B00F0B78003
:1043F0008CB129462246584600F008FD4A4601463F
:104400000546584600F05AFC49460490584600F0CC
:1044100041FB049B99460A9B1A1B04D04946584607
:1044200000F0F4FC81460121584600F031FC0E9B5F
:104430000446002B00F0C9811A460146584600F098
:10444000E5FC209B0446012B00F38F80029B002B90
:1044500040F08780039BC3F31303002B40F083805D
:10446000039B23F000431B0D1B052BB1099B08F197
:1044700001080133099301230A930E9B002B00F0DE
:10448000AA81236904EB8303186900F0B5FBC0F12E
:104490002000099B184410F01F0071D0C0F12003C8
:1044A000042B65DD099BC0F11C00034480440644D5
:1044B0000993B8F1000F05DD49464246584600F021
:1044C000FFFC8146099B002B05DD21461A46584614
:1044D00000F0F6FC04460F9B002B53D021464846C3
:1044E00000F05AFD00284DDA7B1E494604930A224B
:1044F0000023584600F0F0FA0B9B8146002B00F099
:104500006C81002329460A22584600F0E5FA089BF0
:104510000546002B61DC209B022B3BDC5DE0149BFD
:10452000C3F1360346E7079B5C1E0A9BA342BFBF4D
:104530000A9B0E9AE31AD218A8BF1C1B079BBEBF8A
:104540000A940E920024002BB5BFA8EB0306464642
:104550000023079B30E746460A9C0B9D35E70A9AE5
:104560005CE7002388E7029B86E700230A9388E73D
:104570009FD0099A1C331A4498441E44099298E724
:104580000346F6E7079B0497002B20DC0893209B4B
:10459000022B1EDD089B002B7FF4BCAE21460522BA
:1045A000584600F099FA01460446484600F0F4FCEB
:1045B00000287FF7AFAE3123564606F8013B049B37
:1045C00001330493AAE6079C04972546F3E7079B6B
:1045D00008930B9B002B00F00481002E05DD29467B
:1045E0003246584600F06CFC05460A9B002B5AD018
:1045F0005846696800F00EFA064628B9024640F2AD
:10460000EF21834BFFF754BB2A6905F10C010232FD
:1046100092000C3001F05EFF01223146584600F056
:104620004FFC2F4605460AF101030793089B5344AC
:104630000B93029B03F001030A93079B2146013B66
:1046400048460293FFF796FA3946089000F1300881
:10465000484600F0A1FC2A4609902146584600F041
:10466000B7FCC268064602BB0146484600F094FC0F
:104670000246314658460C9200F00CFA209B0C9AE8
:10468000079E43EA02010A9B194310D1B8F1390F82
:1046900029D0099B002B02DD089B03F13108029B06
:1046A00083F800803BE62846BBE70122E1E7099B4F
:1046B000002B04DB20990B430A990B4320D1002ADD
:1046C000EDDD49460122584600F0FAFB21468146BD
:1046D00000F062FC002803DCE1D118F0010FDED00D
:1046E000B8F1390FD8D13923029A137033461E46D8
:1046F00016F8012C013B392A52D001321A700EE60D
:10470000002A07DDB8F1390FEDD0029A08F1010354
:10471000137004E6079B079A03F8018C0B9B9342E6
:1047200028D0494600230A22584600F0D5F9AF4266
:1047300081464FF000034FF00A023946584607D130
:1047400000F0CAF907460546079B0133079374E753
:1047500000F0C2F92946074600230A22584600F015
:10476000BBF90546F0E7089B0027002BCCBF1E468F
:104770000126564449460122584600F0A1FB214635
:10478000814600F009FC0028B0DC02D118F0010FCE
:10479000ACD133461E4613F8012D302AFAD0BEE5BF
:1047A0009A45A4D1049B0133049331238AF8003045
:1047B000B5E5249BDFF85CA01BB10AF10803249A3D
:1047C0001360504617B0BDE8F08F209B012B7FF798
:1047D0003DAE0E9B0A9301205BE6089B002B7FF702
:1047E000D6AE564621464846FFF7C4F900F13008D8
:1047F000089B06F8018BA6EB0A029342B3DD4946FB
:1048000000230A22584600F067F98146EAE700BF14
:10481000DE7200086272000838B50546002940D0F3
:1048200051F8043C0C1F002BB8BFE41800F0E6F868
:104830001C4A136833B9636014602846BDE83840E9
:1048400000F0E2B8A34208D9206821188B4201BFCA
:1048500019685B6809182160EDE71A465B680BB1BF
:10486000A342FAD911685018A0420BD12068014424
:10487000501883421160E0D118685B6808441060EA
:104880005360DAE702D90C232B60D6E720682118A1
:104890008B4201BF19685B6809182160636054602E
:1048A000CBE738BD00050020024B0146186800F038
:1048B00025B800BF1800002070B50F4E0C463168B7
:1048C000054611B901F0F6FD30602146284601F099
:1048D000F1FD431C03D14FF0FF34204670BDC41CD2
:1048E00024F00304A042F8D0211A284601F0E2FD8A
:1048F0000130F2D1EFE700BFFC0400202DE9F843BE
:10490000CD1C25F0030508350C2D38BF0C25002DD6
:10491000064601DBA94204D90C2333600020BDE820
:10492000F883DFF8D48000F069F8D8F800301C462E
:1049300044BB29463046FFF7BFFF431C044658D10D
:10494000D8F800402746002F43D1002C4BD02368D5
:104950003946304604EB030901F0ACFD814542D1F4
:10496000216830466D1A2946FFF7A6FF01303AD07C
:1049700023682B442360D8F800305A6862BBC8F81B
:1049800000700FE02268521B20D40B2A17D961193E
:10499000A342256018BF5960636808BFC8F80010BB
:1049A00062514B60304600F02FF804F10B00231DDC
:1049B00020F00700C21A1CBF1B1AA350AFE76268A1
:1049C000A3420CBFC8F800205A60EBE72346646896
:1049D000AEE73C467F68B6E71A465B68A342FBD168
:1049E00000235360DEE70C233046336000F00CF800
:1049F00094E70560D6E700BF000500200148FFF7F7
:104A0000A4B800BFF80400200148FFF79FB800BF1A
:104A1000F804002070B5C66904460D4676B910202A
:104A2000FFF742FF0246E06120B96B21174B18489F
:104A300001F064FDC0E901660660C660E669F368DE
:104A400083B1E369DB6853F82500B8B9012101FAA5
:104A500005F6721D2046920001F06EFD60B1C0E9BE
:104A600001560EE021220421204601F065FDE36994
:104A7000F060DB68002BE4D1002070BD026843F8D1
:104A800025200023C0E90333F7E700BF6F72000859
:104A9000EF72000870B5C66905460C4676B910205D
:104AA000FFF702FF0246E86120B98F21084B094851
:104AB00001F024FDC0E901660660C6603CB1EB6907
:104AC0006268DB6853F82210216043F8224070BD11
:104AD0006F720008EF7200082DE9F04107460C469E
:104AE0001E4600200D6901F1140CDCF80030013085
:104AF00099B202FB01611E0C0B0C02FB063389B25A
:104B000001EB034185424FEA13464CF8041BECDCF1
:104B10000EB3A368AB4219DC616838460131FFF778
:104B200079FF804628B90246BA210C4B0C4801F0A7
:104B3000E5FC226904F10C01023292000C3001F014
:104B4000C9FC21463846FFF7A5FF444604EB850320
:104B500001355E6125612046BDE8F081DE72000806
:104B6000EF7200082DE9F843154609221F46083365
:104B70000C4693FBF2F30646012200219A4209DB20
:104B80003046FFF747FF40B90246D321184B19487A
:104B900001F0B4FC52000131F0E7089B092D43619C
:104BA0004FF00103036116DD04F10909C8462C44E6
:104BB00018F8013B01460A223046303BFFF78CFFD4
:104BC000A045F5D1A5F108044C442D1B6319BB4247
:104BD00004DBBDE8F88309250A34F6E714F8013B45
:104BE00001460A223046303BFFF776FFEEE700BF72
:104BF000DE720008EF7200080346B0F5803F3ABF4E
:104C0000030410200020B3F1807F3CBF1B0208305A
:104C1000B3F1805F3CBF1B010430B3F1804F3CBF58
:104C20009B000230002B05DB13F0804F00F10100E8
:104C300008BF202070470368024613F007000BD01E
:104C4000D90721D4980749BF5B089B08012013604E
:104C50005CBF02201360704799B209B910201B0C89
:104C6000D9B209B908301B0A190704BF1B0904305F
:104C7000990704BF9B080230D90703D45B0800F1F1
:104C8000010003D013607047002070472020704758
:104C900010B50C460121FFF7BDFE024628B940F2CF
:104CA0004511044B044801F029FC012344610361D0
:104CB00010BD00BFDE720008EF7200082DE9F04F52
:104CC00014460A6923690F469A42A2BF23460C463E
:104CD0001F46D4F810A0D7F81090A36861680AEBBB
:104CE0000906B34285B0B8BF0131FFF793FE30B972
:104CF00002464FF4B171434B434801F0FFFB00F112
:104D000014052B46002205EB8608434521D307F105
:104D1000140104F1140202EB8A0201EB89030293ED
:104D2000131B153B23F00303043304F11507BA42A8
:104D300038BF04230193029B03918B420CD8002EB1
:104D400003DD58F8043D002B5AD0066105B0BDE8DC
:104D5000F08F43F8042BD8E7B1F800A0BAF1000FA8
:104D600023D0A9464FF0000C04F1140E5EF8047B2A
:104D7000D9F800301FFA87FB9BB20AFB0B33634460
:104D8000D9F800C03F0C4FEA1C4C0AFB07C707EBE1
:104D900013479BB243EA074372454FEA174C49F861
:104DA000043BE3D8019B45F803C0039B0431B3F8EF
:104DB0000290B9F1000F21D0AE464FF0000A2B68E7
:104DC00004F1140CBCF800B0BEF802709BB209FBF1
:104DD0000B77574443EA07434EF8043B5CF8043B27
:104DE0004FEA134ABEF80030624509FB0A3303EB71
:104DF00017434FEA134AE5D8019FEB5104359AE770
:104E0000013E9CE7DE720008EF7200082DE9F843CE
:104E1000154612F0030207460E4607D0254C013A0C
:104E2000002354F82220FFF757FE0646AD103DD070
:104E3000FC697CB91020FFF737FD0246F86128B9FC
:104E400040F2B3111C4B1D4801F058FBC0E901446E
:104E50000460C460D7F81C80D8F808404CB940F210
:104E600071213846FFF714FF00230446C8F80800F4
:104E700003604FF00009EB070AD531462246384659
:104E8000FFF71CFF804631463846FFF703FE4646D3
:104E90006D100BD0206838B9224621463846FFF7FE
:104EA0000DFF2060C0F800900446E4E73046BDE8FE
:104EB000F88300BF487300086F720008EF720008A3
:104EC0002DE9F0470C46074691462369496803EBF4
:104ED0006218A3684FEA621A08F10106B3420BDBBD
:104EE0003846FFF797FD054648B902464FF4EF7183
:104EF000274B284801F002FB01315B00EEE700235D
:104F000000F1140100F110021846534533DB20690B
:104F10002AEAEA7A04F1140319F01F0901EB8A0165
:104F200003EB800C2BD08A460022C9F1200E1868B2
:104F300000FA09F010434AF8040B53F8042B9C457F
:104F400022FA0EF2F3D8ACEB0403153B23F0030373
:104F5000043304F11500844538BF0423CA500AB154
:104F600008F10206013E384621462E61FFF792FD08
:104F70002846BDE8F08742F8040F0133C5E704393D
:104F800053F8042B9C4541F8042FF9D8EAE700BFF9
:104F9000DE720008EF72000803460A69006930B546
:104FA000801A0ED11433143103EB820401EB820119
:104FB00054F8045D51F8042D954203D005D24FF00A
:104FC000FF3030BDA342F3D3FBE70120F9E7000037
:104FD0002DE9F74F89460646114648461446FFF725
:104FE000DBFF051E12D129463046FFF713FD0246AE
:104FF00028B940F237213E4B3E4801F07FFA0123A9
:10500000C0E90435104603B0BDE8F08FBCBF4B4685
:10501000A1463046D9F80410BABF1C460125002528
:10502000FFF7F8FC024618B940F24521304BE3E7A0
:1050300000F1140BD9F8107009F11003C5604FF09E
:10504000000C09F11405D946266904F1140E05EB8C
:1050500087080EEB86060193019B5EF8040B53F85C
:1050600004AF81B201931FFA8AF35B1A000C634408
:10507000C0EB1A4000EB23409BB243EA0043764565
:105080004FEA204C49F8043BE6D8331B153B23F08C
:10509000030315340433A64238BF04231D445B4484
:1050A0001E462C4644450ED308F10301491B21F04E
:1050B0000301033DA84538BF00210B4453F8041DEC
:1050C00099B117619EE7E64654F8041B1FFA81FC6C
:1050D000F444080C714400EB2C4089B241EA0041D1
:1050E0004FEA204C46F8041BDCE7013FE6E700BF2F
:1050F000DE720008EF7200080E4B0B40A3F15073F4
:10510000002B08DC5B42B3F1A07F4FEA235204DAA4
:105110004FF400231341002208E0A2F114031E2BD8
:10512000D6BF4FF000420122DA4000231946104654
:10513000704700BF0000F07F0269F8B500F1140667
:1051400006EB820252F8044C1E4F2046FFF754FD36
:105150000346C0F120000A2BA2F10405086012DC0E
:10516000AE422CBF002252F8082CC3F10B0C1533B1
:1051700024FA0CFE04FA03F322FA0CF24EEA0701B9
:105180001A431046F8BDAE4236BFA2F10805002210
:1051900052F8082C0B3B12D0C3F1200722FA07F17A
:1051A0009C400C43B54244F07F5194BF002455F815
:1051B000044C9A40FC4041F440112243E1E744EAA8
:1051C0000701DEE70000F03F2DE97343012190461F
:1051D0009946089EFFF71EFC044630B9024640F28D
:1051E0000F31234B234801F089F9C9F30A55C9F35C
:1051F00013030DB143F480130193B8F1000324D0DD
:1052000068460093FFF717FDDDE90012D8B1C0F141
:10521000200302FA03F30B43C24063610192019B36
:10522000002B0CBF01220222A3612261ADB1A5F2C5
:10523000334505443560C0F13500099B18602046B0
:1052400002B0BDE870836161E9E701A8FFF7F3FCF4
:10525000019B012263612030E7E7A0F2324004EBBA
:10526000820330601869FFF7C7FCC0EB4210E4E727
:10527000DE720008EF7200082DE9F04F85B0CDE92D
:10528000001002A9FFF758FF8B4606460F4600980C
:1052900003A9FFF751FF0D46019B89461969009B41
:1052A00004461B693046C91ADDE902329B1A03EB3A
:1052B0004113002BCDBF3A462A46C3EB033302EB22
:1052C000035BD8BF02EB03594B4622465946FBF716
:1052D0002DFA05B0BDE8F08F013970B54911146998
:1052E000013102F1140300EB810103EB8404051F7B
:1052F000A3420CD3A31A113B23F003031132A242A1
:1053000088BF002318440023884205D370BD53F89A
:10531000046B45F8046FEBE740F8043BF4E700F159
:10532000140200694B11984210B511DB0ADD11F02F
:105330001F0107D052F8234024FA01F000FA01F1CE
:105340008C420BD102EB8303934203D8002010BDA3
:105350000346F7E753F8041D0029F5D00120F6E7CE
:105360002DE9F0410F469046FFF7C6FE04460D4674
:10537000B8F1000F11D0C7F30A53C3F16B03002B30
:105380000BDD00241B0503F17F5505F54015224672
:105390002B46FBF7A1F804460D4620462946BDE8FA
:1053A000F0810000000000002DE9F04F9FB017923F
:1053B00000220C461A924FF0000A4FF0000B0A46EA
:1053C0000590199211782B2948D036D80D2930D85C
:1053D000082930D8002939D000220B92199D2A784B
:1053E000302A40F0B1806A7802F0DF02582A6CD18E
:1053F00002930B9B8E4A01931AAB009305981BAB4B
:1054000019A901F015F910F00F06044605D0062E73
:1054100026D10023013519950B93179B002B40F0E3
:1054200084850B9BBBB150460BF100411FB0BDE81A
:10543000F08F2029D0D10132C3E72D29CCD1012111
:105440000B91511C19915278002AC7D1179B1994BE
:10545000002B40F0688550465946E7E70021EFE70A
:105460001A9A3AB135211CA8FFF736FF1A99059808
:10547000FFF710FB013E1B9A042E06D8DFE806F06A
:1054800014031D201400DDE91CABE10548BF4BF0FF
:10549000004B2BF000431B0D1B05002BBDD1FEF76D
:1054A00029FB22230360B8E702F23342DDE91CA3A3
:1054B00023F4801343EA025BE7E7DFF878B1E4E71F
:1054C0006FF0004B4FF0FF3ADFE7199B5A1C19921F
:1054D0005B78302BF9D0002B9FD001230993199BC7
:1054E0000A220C9300231F4608930A931998057803
:1054F000A5F13003D9B2092928D901224E4900F07B
:10550000C7FF002832D000202A4681463D46034688
:10551000652A01D0452A14D11DB9099A024395D0B4
:105520000025199C621C199262782B2A77D02D2AAB
:105530007BD04FF0000CA2F13001092940F28280AB
:1055400019944FF00008A2E00023C7E7082FD5BF49
:105550000A99089902FB013302FB013300F10100B3
:10556000D4BF0A93089301371990BFE7199B5A1CBF
:1055700019925A787FB381463D46A2F13003092B38
:1055800012D90123C4E7199B01305A1C19925A7889
:10559000302AF8D0A2F13103082B00F2CB848146E7
:1055A00000200546199B0C93303A00F101032AD0E4
:1055B00099440A212B4600EB050C63450DD1691C6B
:1055C00001442844082816DC0A230A9803FB002318
:1055D0000A93002318E03846DAE7082B03F10103A9
:1055E00003DC0A9E4E430A96E7E7102BDEBF089EB7
:1055F0004E430896E1E70F28EBDC0A23089803FBEB
:1056000000230893E5E72946199A0D46501C199086
:1056100052781846B1E74FF0000901237DE74FF0BB
:10562000000CA21C1992A27885E74FF0010CF8E754
:10563000607400080000F07F48740008199A511C3B
:1056400019915278302AF9D0A2F1310108293FF698
:1056500078AF4FF00A08303A0E92199A0F92199AC1
:10566000561C19965278A2F1300EBEF1090F39D9A5
:105670000F9944F61F68761A082E03DC0E998845A8
:10568000A8BF8846BCF1000F01D0C8F10008002D6A
:105690004ED1099908437FF4C0AE002B7FF4D6AEFB
:1056A000692A28D025DC492A25D04E2A7FF4CEAE9F
:1056B0009A4919A801F0DEF900283FF4C7AE199BFA
:1056C0001B78282B2ED196491CAA19A801F0E6F9BF
:1056D000052827D11D9BDDF870A043F0FF4B4BF44C
:1056E000E00B9AE60E9908FB0121A1F130020E921F
:1056F000B5E76E2ADAE78B4919A801F0BBF9002853
:105700003FF4A4AE199B8849013B19A8199301F0F5
:10571000B1F910B9199B013319934FF0000ADFF862
:105720000CB27AE6824800F0E3FE82468B4674E6CD
:10573000A8EB0903002F08BF2F460A98102D2C460E
:105740000993A8BF1024FAF74DFE092D82468B4617
:1057500011DC099B002B3FF460AE099B76DD162B14
:105760005DDC7449524601EBC3015B46D1E900019F
:10577000FAF7B2FED9E76F4B03EBC40353E91223E8
:10578000FAF7AAFE824608988B46FAF72BFE0246E5
:105790000B4650465946FAF7E9FC0F2D82468B46D8
:1057A000D7DD099B2C1B1C44002C40F3968014F081
:1057B0000F030AD05F49524601EBC301D1E9000152
:1057C0005B46FAF789FE82468B4634F00F0473D0AD
:1057D000B4F59A7F48DD0024A046A1460A9422230E
:1057E0004FF0000A059ADFF844B113600A9B002BC2
:1057F0003FF413AE1A990598FFF74CF949460598FE
:10580000FFF748F941460598FFF744F90A990598CA
:10581000FFF740F921460598FFF73CF9FDE5099AA5
:10582000C5F125039342BCDB424CC5F10F0504EBE7
:10583000C5015246D1E900015B46FAF74DFE099BCE
:105840005D1B04EBC504D4E9002391E71633A8DB04
:10585000384BA9EB080803EBC8085046D8E90023E9
:105860005946FAF763FF60E7334B5046089300232D
:1058700059461E462411012C21DC0BB182468B4671
:105880002D49ABF1547B01EBC6015246D1E9000131
:105890005B46FAF721FE254B0A460B402749824614
:1058A0008B4298D8A1F580118B4286BF4FF0FF3A0A
:1058B000DFF88CB002F1547B002308937AE0E20712
:1058C00005D5089BD3E90023FAF706FE0123089AC1
:1058D0000136083264100892CDE7EDD0644214F02E
:1058E0000F020AD0134B504603EBC2035946D3E9CB
:1058F0000023FAF71BFF82468B462411DCD01F2CB5
:1059000020DD0024A046A1460A942223059A4FF0E8
:10591000000A4FF0000B136068E700BF3672000802
:105920004C7400082E720008657200080000F07FB9
:10593000F575000880730008587300080000A07C0B
:10594000FFFFEF7F14F0100318BF6A23504608933F
:1059500059460023A94EE20704D5D6E90023FAF7F9
:10596000BBFD0123641006F10806F4D10BB1824699
:105970008B46089BB3B1CBF30A52C2F16B03002BE9
:1059800059460FDD1F2B57DD342BD8BF4FF0FF33A7
:105990004FF0000ACFBF4FF05C7BC2F14B02934047
:1059A00003EA010B0022002350465946FAF7FCFF98
:1059B0000028A6D10A9B3A4600930C992B460598DD
:1059C000FFF7D0F80A9000283FF405AF0024099AA9
:1059D000A9EB0803002AA8BF0023A046129322EADD
:1059E000E27316930A9B05985968FFF713F88146EE
:1059F00000283FF4F4AE0A9B0C301A6903F10C0145
:105A00000232920000F066FD1CAB01931BAB0093C9
:105A100052465B460598CDE90CABFFF7D5FB1A90D3
:105A200000283FF4DCAE01210598FFF731F98046EC
:105A300048B94FF00008D2E64FF0FF3202FA03F304
:105A400003EA0A0AAEE71B9D1C9A002DABBF129B0E
:105A5000169BEF185E1B089BA8BF169EA5EB0305BF
:105A60001544674B05F1FF35B8BF129F9D42C2F147
:105A7000360250DA5B1B1F2B4FF00101A2EB030231
:105A80003DDC01FA03F3139300231093BD18089B28
:105A9000AF4216441E443B46A8BF2B46B342A8BFA4
:105AA0003346002BC2BFED1AF61AFF1A129B002BC9
:105AB00016DD41461A460598FFF7A8F980460028EA
:105AC000B7D001461A9A0598FFF7F8F80E9000280B
:105AD0003FF485AE1A990598FEF7DCFF0E9B1A93EA
